{
  "_format": "hh-sol-artifact-1",
  "contractName": "Collection",
  "sourceName": "contracts/Collection.sol",
  "abi": [
    {
      "inputs": [
        {
          "internalType": "string",
          "name": "baseTokenURI",
          "type": "string"
        },
        {
          "internalType": "string",
          "name": "unrevealedTokenURI",
          "type": "string"
        },
        {
          "internalType": "uint256",
          "name": "maxSupply",
          "type": "uint256"
        },
        {
          "internalType": "uint256",
          "name": "revealAt",
          "type": "uint256"
        }
      ],
      "stateMutability": "nonpayable",
      "type": "constructor"
    },
    {
      "anonymous": false,
      "inputs": [
        {
          "indexed": true,
          "internalType": "address",
          "name": "account",
          "type": "address"
        },
        {
          "indexed": true,
          "internalType": "address",
          "name": "operator",
          "type": "address"
        },
        {
          "indexed": false,
          "internalType": "bool",
          "name": "approved",
          "type": "bool"
        }
      ],
      "name": "ApprovalForAll",
      "type": "event"
    },
    {
      "anonymous": false,
      "inputs": [
        {
          "indexed": true,
          "internalType": "address",
          "name": "previousOwner",
          "type": "address"
        },
        {
          "indexed": true,
          "internalType": "address",
          "name": "newOwner",
          "type": "address"
        }
      ],
      "name": "OwnershipTransferred",
      "type": "event"
    },
    {
      "anonymous": false,
      "inputs": [
        {
          "indexed": true,
          "internalType": "address",
          "name": "operator",
          "type": "address"
        },
        {
          "indexed": true,
          "internalType": "address",
          "name": "from",
          "type": "address"
        },
        {
          "indexed": true,
          "internalType": "address",
          "name": "to",
          "type": "address"
        },
        {
          "indexed": false,
          "internalType": "uint256[]",
          "name": "ids",
          "type": "uint256[]"
        },
        {
          "indexed": false,
          "internalType": "uint256[]",
          "name": "values",
          "type": "uint256[]"
        }
      ],
      "name": "TransferBatch",
      "type": "event"
    },
    {
      "anonymous": false,
      "inputs": [
        {
          "indexed": true,
          "internalType": "address",
          "name": "operator",
          "type": "address"
        },
        {
          "indexed": true,
          "internalType": "address",
          "name": "from",
          "type": "address"
        },
        {
          "indexed": true,
          "internalType": "address",
          "name": "to",
          "type": "address"
        },
        {
          "indexed": false,
          "internalType": "uint256",
          "name": "id",
          "type": "uint256"
        },
        {
          "indexed": false,
          "internalType": "uint256",
          "name": "value",
          "type": "uint256"
        }
      ],
      "name": "TransferSingle",
      "type": "event"
    },
    {
      "anonymous": false,
      "inputs": [
        {
          "indexed": false,
          "internalType": "string",
          "name": "value",
          "type": "string"
        },
        {
          "indexed": true,
          "internalType": "uint256",
          "name": "id",
          "type": "uint256"
        }
      ],
      "name": "URI",
      "type": "event"
    },
    {
      "inputs": [],
      "name": "_maxSupply",
      "outputs": [
        {
          "internalType": "uint256",
          "name": "",
          "type": "uint256"
        }
      ],
      "stateMutability": "view",
      "type": "function"
    },
    {
      "inputs": [
        {
          "internalType": "address",
          "name": "account",
          "type": "address"
        },
        {
          "internalType": "uint256",
          "name": "id",
          "type": "uint256"
        }
      ],
      "name": "balanceOf",
      "outputs": [
        {
          "internalType": "uint256",
          "name": "",
          "type": "uint256"
        }
      ],
      "stateMutability": "view",
      "type": "function"
    },
    {
      "inputs": [
        {
          "internalType": "address[]",
          "name": "accounts",
          "type": "address[]"
        },
        {
          "internalType": "uint256[]",
          "name": "ids",
          "type": "uint256[]"
        }
      ],
      "name": "balanceOfBatch",
      "outputs": [
        {
          "internalType": "uint256[]",
          "name": "",
          "type": "uint256[]"
        }
      ],
      "stateMutability": "view",
      "type": "function"
    },
    {
      "inputs": [
        {
          "internalType": "address",
          "name": "account",
          "type": "address"
        },
        {
          "internalType": "address",
          "name": "operator",
          "type": "address"
        }
      ],
      "name": "isApprovedForAll",
      "outputs": [
        {
          "internalType": "bool",
          "name": "",
          "type": "bool"
        }
      ],
      "stateMutability": "view",
      "type": "function"
    },
    {
      "inputs": [
        {
          "internalType": "address",
          "name": "to",
          "type": "address"
        },
        {
          "internalType": "uint256",
          "name": "id",
          "type": "uint256"
        }
      ],
      "name": "mint",
      "outputs": [],
      "stateMutability": "nonpayable",
      "type": "function"
    },
    {
      "inputs": [
        {
          "internalType": "address",
          "name": "",
          "type": "address"
        }
      ],
      "name": "mintedAt",
      "outputs": [
        {
          "internalType": "uint256",
          "name": "",
          "type": "uint256"
        }
      ],
      "stateMutability": "view",
      "type": "function"
    },
    {
      "inputs": [
        {
          "internalType": "address",
          "name": "",
          "type": "address"
        }
      ],
      "name": "mintedNFT",
      "outputs": [
        {
          "internalType": "bool",
          "name": "",
          "type": "bool"
        }
      ],
      "stateMutability": "view",
      "type": "function"
    },
    {
      "inputs": [],
      "name": "owner",
      "outputs": [
        {
          "internalType": "address",
          "name": "",
          "type": "address"
        }
      ],
      "stateMutability": "view",
      "type": "function"
    },
    {
      "inputs": [],
      "name": "renounceOwnership",
      "outputs": [],
      "stateMutability": "nonpayable",
      "type": "function"
    },
    {
      "inputs": [
        {
          "internalType": "address",
          "name": "from",
          "type": "address"
        },
        {
          "internalType": "address",
          "name": "to",
          "type": "address"
        },
        {
          "internalType": "uint256[]",
          "name": "ids",
          "type": "uint256[]"
        },
        {
          "internalType": "uint256[]",
          "name": "amounts",
          "type": "uint256[]"
        },
        {
          "internalType": "bytes",
          "name": "data",
          "type": "bytes"
        }
      ],
      "name": "safeBatchTransferFrom",
      "outputs": [],
      "stateMutability": "nonpayable",
      "type": "function"
    },
    {
      "inputs": [
        {
          "internalType": "address",
          "name": "from",
          "type": "address"
        },
        {
          "internalType": "address",
          "name": "to",
          "type": "address"
        },
        {
          "internalType": "uint256",
          "name": "id",
          "type": "uint256"
        },
        {
          "internalType": "uint256",
          "name": "amount",
          "type": "uint256"
        },
        {
          "internalType": "bytes",
          "name": "data",
          "type": "bytes"
        }
      ],
      "name": "safeTransferFrom",
      "outputs": [],
      "stateMutability": "nonpayable",
      "type": "function"
    },
    {
      "inputs": [
        {
          "internalType": "address",
          "name": "operator",
          "type": "address"
        },
        {
          "internalType": "bool",
          "name": "approved",
          "type": "bool"
        }
      ],
      "name": "setApprovalForAll",
      "outputs": [],
      "stateMutability": "nonpayable",
      "type": "function"
    },
    {
      "inputs": [
        {
          "internalType": "string",
          "name": "baseTokenURI",
          "type": "string"
        }
      ],
      "name": "setBaseURI",
      "outputs": [],
      "stateMutability": "nonpayable",
      "type": "function"
    },
    {
      "inputs": [
        {
          "internalType": "uint256",
          "name": "maxSupply",
          "type": "uint256"
        }
      ],
      "name": "setMaxSupply",
      "outputs": [],
      "stateMutability": "nonpayable",
      "type": "function"
    },
    {
      "inputs": [
        {
          "internalType": "uint256",
          "name": "revealAt",
          "type": "uint256"
        }
      ],
      "name": "setRevealAt",
      "outputs": [],
      "stateMutability": "nonpayable",
      "type": "function"
    },
    {
      "inputs": [
        {
          "internalType": "string",
          "name": "unrevealedTokenURI",
          "type": "string"
        }
      ],
      "name": "setUnRevealedTokenURI",
      "outputs": [],
      "stateMutability": "nonpayable",
      "type": "function"
    },
    {
      "inputs": [
        {
          "internalType": "bytes4",
          "name": "interfaceId",
          "type": "bytes4"
        }
      ],
      "name": "supportsInterface",
      "outputs": [
        {
          "internalType": "bool",
          "name": "",
          "type": "bool"
        }
      ],
      "stateMutability": "view",
      "type": "function"
    },
    {
      "inputs": [
        {
          "internalType": "uint256",
          "name": "",
          "type": "uint256"
        }
      ],
      "name": "tokenIDMinted",
      "outputs": [
        {
          "internalType": "bool",
          "name": "",
          "type": "bool"
        }
      ],
      "stateMutability": "view",
      "type": "function"
    },
    {
      "inputs": [
        {
          "internalType": "uint256",
          "name": "id",
          "type": "uint256"
        }
      ],
      "name": "tokenURI",
      "outputs": [
        {
          "internalType": "string",
          "name": "",
          "type": "string"
        }
      ],
      "stateMutability": "view",
      "type": "function"
    },
    {
      "inputs": [
        {
          "internalType": "address",
          "name": "newOwner",
          "type": "address"
        }
      ],
      "name": "transferOwnership",
      "outputs": [],
      "stateMutability": "nonpayable",
      "type": "function"
    },
    {
      "inputs": [
        {
          "internalType": "uint256",
          "name": "",
          "type": "uint256"
        }
      ],
      "name": "uri",
      "outputs": [
        {
          "internalType": "string",
          "name": "",
          "type": "string"
        }
      ],
      "stateMutability": "view",
      "type": "function"
    }
  ],
  "bytecode": "0x60806040523480156200001157600080fd5b50604051620021bd380380620021bd83398101604081905262000034916200024e565b8362000040816200008a565b506200004c33620000a3565b835162000061906004906020870190620000f5565b50825162000077906005906020860190620000f5565b50600a9190915560065550620003189050565b80516200009f906002906020840190620000f5565b5050565b600380546001600160a01b038381166001600160a01b0319831681179093556040519116919082907f8be0079c531659141344cd1fd0a4f28419497f9722a3daafe3b4186f6b6457e090600090a35050565b8280546200010390620002c5565b90600052602060002090601f01602090048101928262000127576000855562000172565b82601f106200014257805160ff191683800117855562000172565b8280016001018555821562000172579182015b828111156200017257825182559160200191906001019062000155565b506200018092915062000184565b5090565b5b8082111562000180576000815560010162000185565b600082601f830112620001ac578081fd5b81516001600160401b0380821115620001c957620001c962000302565b604051601f8301601f19908116603f01168101908282118183101715620001f457620001f462000302565b8160405283815260209250868385880101111562000210578485fd5b8491505b8382101562000233578582018301518183018401529082019062000214565b838211156200024457848385830101525b9695505050505050565b6000806000806080858703121562000264578384fd5b84516001600160401b03808211156200027b578586fd5b62000289888389016200019b565b955060208701519150808211156200029f578485fd5b50620002ae878288016200019b565b604087015160609097015195989097509350505050565b600181811c90821680620002da57607f821691505b60208210811415620002fc57634e487b7160e01b600052602260045260246000fd5b50919050565b634e487b7160e01b600052604160045260246000fd5b611e9580620003286000396000f3fe608060405234801561001057600080fd5b50600436106101365760003560e01c806355f804b3116100b85780638da5cb5b1161007c5780638da5cb5b146102af578063a22cb465146102cf578063c87b56dd146102e2578063e985e9c5146102f5578063f242432a14610331578063f2fde38b1461034457610136565b806355f804b31461024b5780636f8b44b01461025e578063715018a614610271578063733088e6146102795780637da68f101461028c57610136565b806322f4596f116100ff57806322f4596f146101d95780632eb2c2d6146101e2578063322a8c4f146101f557806340c10f19146102185780634e1273f41461022b57610136565b8062fdd58e1461013b57806301ffc9a7146101615780630e89341c146101845780631dfbd149146101a457806321442ec9146101b9575b600080fd5b61014e610149366004611756565b610357565b6040519081526020015b60405180910390f35b61017461016f36600461184a565b6103ed565b6040519015158152602001610158565b6101976101923660046118c8565b610441565b6040516101589190611af7565b6101b76101b2366004611882565b6104d5565b005b61014e6101c73660046115c7565b60076020526000908152604090205481565b61014e600a5481565b6101b76101f0366004611613565b6104f4565b6101746102033660046118c8565b60096020526000908152604090205460ff1681565b6101b7610226366004611756565b610540565b61023e61023936600461177f565b6106ae565b6040516101589190611abf565b6101b7610259366004611882565b610810565b6101b761026c3660046118c8565b61082b565b6101b761087a565b6101b76102873660046118c8565b61088e565b61017461029a3660046115c7565b60086020526000908152604090205460ff1681565b6102b76108d8565b6040516001600160a01b039091168152602001610158565b6101b76102dd36600461171c565b6108e8565b6101976102f03660046118c8565b6108f3565b6101746103033660046115e1565b6001600160a01b03918216600090815260016020908152604080832093909416825291909152205460ff1690565b6101b761033f3660046116b9565b6109e7565b6101b76103523660046115c7565b610a2c565b60006001600160a01b0383166103c75760405162461bcd60e51b815260206004820152602a60248201527f455243313135353a2061646472657373207a65726f206973206e6f742061207660448201526930b634b21037bbb732b960b11b60648201526084015b60405180910390fd5b506000908152602081815260408083206001600160a01b03949094168352929052205490565b60006001600160e01b03198216636cdb3d1360e11b148061041e57506001600160e01b031982166303a24d0760e21b145b8061043957506301ffc9a760e01b6001600160e01b03198316145b90505b919050565b60606002805461045090611cc7565b80601f016020809104026020016040519081016040528092919081815260200182805461047c90611cc7565b80156104c95780601f1061049e576101008083540402835291602001916104c9565b820191906000526020600020905b8154815290600101906020018083116104ac57829003601f168201915b50505050509050919050565b6104dd610aa5565b80516104f090600590602084019061141f565b5050565b6001600160a01b03851633148061051057506105108533610303565b61052c5760405162461bcd60e51b81526004016103be90611b0a565b6105398585858585610b04565b5050505050565b610548610aa5565b6001600160a01b03821660009081526008602052604090205460ff16156105aa5760405162461bcd60e51b81526020600482015260166024820152751053149150511657d3525395115117d050d0d3d5539560521b60448201526064016103be565b60008181526009602052604090205460ff16156106025760405162461bcd60e51b81526020600482015260166024820152751053149150511657d3525395115117d513d2d153925160521b60448201526064016103be565b600a5481106106475760405162461bcd60e51b81526020600482015260116024820152704558434545445f4d41585f535550504c5960781b60448201526064016103be565b6106638282600160405180602001604052806000815250610cfd565b6001600160a01b039091166000908152600860209081526040808320805460ff1990811660019081179092556007845282852042905594845260099092529091208054909216179055565b606081518351146107135760405162461bcd60e51b815260206004820152602960248201527f455243313135353a206163636f756e747320616e6420696473206c656e677468604482015268040dad2e6dac2e8c6d60bb1b60648201526084016103be565b6000835167ffffffffffffffff81111561073d57634e487b7160e01b600052604160045260246000fd5b604051908082528060200260200182016040528015610766578160200160208202803683370190505b50905060005b8451811015610808576107cd85828151811061079857634e487b7160e01b600052603260045260246000fd5b60200260200101518583815181106107c057634e487b7160e01b600052603260045260246000fd5b6020026020010151610357565b8282815181106107ed57634e487b7160e01b600052603260045260246000fd5b602090810291909101015261080181611d2f565b905061076c565b509392505050565b610818610aa5565b80516104f090600490602084019061141f565b610833610aa5565b600081116108755760405162461bcd60e51b815260206004820152600f60248201526e5a45524f5f4d41585f535550504c5960881b60448201526064016103be565b600a55565b610882610aa5565b61088c6000610e11565b565b610896610aa5565b600081116108d35760405162461bcd60e51b815260206004820152600a6024820152695a45524f5f56414c554560b01b60448201526064016103be565b600655565b6003546001600160a01b03165b90565b6104f0338383610e63565b60008181526009602052604090205460609060ff1661099e576005805461091990611cc7565b80601f016020809104026020016040519081016040528092919081815260200182805461094590611cc7565b80156109925780601f1061096757610100808354040283529160200191610992565b820191906000526020600020905b81548152906001019060200180831161097557829003601f168201915b5050505050905061043c565b4260065410156109da5760046109b383610f44565b6040516020016109c4929190611962565b604051602081830303815290604052905061043c565b6005805461091990611cc7565b6001600160a01b038516331480610a035750610a038533610303565b610a1f5760405162461bcd60e51b81526004016103be90611b0a565b6105398585858585611067565b610a34610aa5565b6001600160a01b038116610a995760405162461bcd60e51b815260206004820152602660248201527f4f776e61626c653a206e6577206f776e657220697320746865207a65726f206160448201526564647265737360d01b60648201526084016103be565b610aa281610e11565b50565b33610aae6108d8565b6001600160a01b03161461088c5760405162461bcd60e51b815260206004820181905260248201527f4f776e61626c653a2063616c6c6572206973206e6f7420746865206f776e657260448201526064016103be565b8151835114610b665760405162461bcd60e51b815260206004820152602860248201527f455243313135353a2069647320616e6420616d6f756e7473206c656e677468206044820152670dad2e6dac2e8c6d60c31b60648201526084016103be565b6001600160a01b038416610b8c5760405162461bcd60e51b81526004016103be90611ba1565b3360005b8451811015610c8f576000858281518110610bbb57634e487b7160e01b600052603260045260246000fd5b602002602001015190506000858381518110610be757634e487b7160e01b600052603260045260246000fd5b602090810291909101810151600084815280835260408082206001600160a01b038e168352909352919091205490915081811015610c375760405162461bcd60e51b81526004016103be90611be6565b6000838152602081815260408083206001600160a01b038e8116855292528083208585039055908b16825281208054849290610c74908490611c54565b9250508190555050505080610c8890611d2f565b9050610b90565b50846001600160a01b0316866001600160a01b0316826001600160a01b03167f4a39dc06d4c0dbc64b70af90fd698a233a518aa5d07e595d983b8c0526c8f7fb8787604051610cdf929190611ad2565b60405180910390a4610cf5818787878787611191565b505050505050565b6001600160a01b038416610d5d5760405162461bcd60e51b815260206004820152602160248201527f455243313135353a206d696e7420746f20746865207a65726f206164647265736044820152607360f81b60648201526084016103be565b336000610d69856112fc565b90506000610d76856112fc565b90506000868152602081815260408083206001600160a01b038b16845290915281208054879290610da8908490611c54565b909155505060408051878152602081018790526001600160a01b03808a1692600092918716917fc3d58168c5ae7397731d063d5bbf3d657854427343f4c083240f7aacaa2d0f62910160405180910390a4610e0883600089898989611355565b50505050505050565b600380546001600160a01b038381166001600160a01b0319831681179093556040519116919082907f8be0079c531659141344cd1fd0a4f28419497f9722a3daafe3b4186f6b6457e090600090a35050565b816001600160a01b0316836001600160a01b03161415610ed75760405162461bcd60e51b815260206004820152602960248201527f455243313135353a2073657474696e6720617070726f76616c20737461747573604482015268103337b91039b2b63360b91b60648201526084016103be565b6001600160a01b03838116600081815260016020908152604080832094871680845294825291829020805460ff191686151590811790915591519182527f17307eab39ab6107e8899845ad3d59bd9653f200f220920489ca2b5937696c31910160405180910390a3505050565b606081610f6957506040805180820190915260018152600360fc1b602082015261043c565b8160005b8115610f935780610f7d81611d2f565b9150610f8c9050600a83611c6c565b9150610f6d565b60008167ffffffffffffffff811115610fbc57634e487b7160e01b600052604160045260246000fd5b6040519080825280601f01601f191660200182016040528015610fe6576020820181803683370190505b5090505b841561105f57610ffb600183611c80565b9150611008600a86611d4a565b611013906030611c54565b60f81b81838151811061103657634e487b7160e01b600052603260045260246000fd5b60200101906001600160f81b031916908160001a905350611058600a86611c6c565b9450610fea565b949350505050565b6001600160a01b03841661108d5760405162461bcd60e51b81526004016103be90611ba1565b336000611099856112fc565b905060006110a6856112fc565b90506000868152602081815260408083206001600160a01b038c168452909152902054858110156110e95760405162461bcd60e51b81526004016103be90611be6565b6000878152602081815260408083206001600160a01b038d8116855292528083208985039055908a16825281208054889290611126908490611c54565b909155505060408051888152602081018890526001600160a01b03808b16928c821692918816917fc3d58168c5ae7397731d063d5bbf3d657854427343f4c083240f7aacaa2d0f62910160405180910390a4611186848a8a8a8a8a611355565b505050505050505050565b6001600160a01b0384163b15610cf55760405163bc197c8160e01b81526001600160a01b0385169063bc197c81906111d59089908990889088908890600401611a1c565b602060405180830381600087803b1580156111ef57600080fd5b505af192505050801561121f575060408051601f3d908101601f1916820190925261121c91810190611866565b60015b6112cc5761122b611da0565b806308c379a014156112655750611240611db7565b8061124b5750611267565b8060405162461bcd60e51b81526004016103be9190611af7565b505b60405162461bcd60e51b815260206004820152603460248201527f455243313135353a207472616e7366657220746f206e6f6e20455243313135356044820152732932b1b2b4bb32b91034b6b83632b6b2b73a32b960611b60648201526084016103be565b6001600160e01b0319811663bc197c8160e01b14610e085760405162461bcd60e51b81526004016103be90611b59565b6040805160018082528183019092526060916000919060208083019080368337019050509050828160008151811061134457634e487b7160e01b600052603260045260246000fd5b602090810291909101015292915050565b6001600160a01b0384163b15610cf55760405163f23a6e6160e01b81526001600160a01b0385169063f23a6e61906113999089908990889088908890600401611a7a565b602060405180830381600087803b1580156113b357600080fd5b505af19250505080156113e3575060408051601f3d908101601f191682019092526113e091810190611866565b60015b6113ef5761122b611da0565b6001600160e01b0319811663f23a6e6160e01b14610e085760405162461bcd60e51b81526004016103be90611b59565b82805461142b90611cc7565b90600052602060002090601f01602090048101928261144d5760008555611493565b82601f1061146657805160ff1916838001178555611493565b82800160010185558215611493579182015b82811115611493578251825591602001919060010190611478565b5061149f9291506114a3565b5090565b5b8082111561149f57600081556001016114a4565b600067ffffffffffffffff8311156114d2576114d2611d8a565b6040516114e9601f8501601f191660200182611d02565b8091508381528484840111156114fe57600080fd5b83836020830137600060208583010152509392505050565b80356001600160a01b038116811461043c57600080fd5b600082601f83011261153d578081fd5b8135602061154a82611c30565b6040516115578282611d02565b8381528281019150858301600585901b87018401881015611576578586fd5b855b8581101561159457813584529284019290840190600101611578565b5090979650505050505050565b600082601f8301126115b1578081fd5b6115c0838335602085016114b8565b9392505050565b6000602082840312156115d8578081fd5b6115c082611516565b600080604083850312156115f3578081fd5b6115fc83611516565b915061160a60208401611516565b90509250929050565b600080600080600060a0868803121561162a578081fd5b61163386611516565b945061164160208701611516565b9350604086013567ffffffffffffffff8082111561165d578283fd5b61166989838a0161152d565b9450606088013591508082111561167e578283fd5b61168a89838a0161152d565b9350608088013591508082111561169f578283fd5b506116ac888289016115a1565b9150509295509295909350565b600080600080600060a086880312156116d0578081fd5b6116d986611516565b94506116e760208701611516565b93506040860135925060608601359150608086013567ffffffffffffffff811115611710578182fd5b6116ac888289016115a1565b6000806040838503121561172e578182fd5b61173783611516565b91506020830135801515811461174b578182fd5b809150509250929050565b60008060408385031215611768578182fd5b61177183611516565b946020939093013593505050565b60008060408385031215611791578182fd5b823567ffffffffffffffff808211156117a8578384fd5b818501915085601f8301126117bb578384fd5b813560206117c882611c30565b6040516117d58282611d02565b8381528281019150858301600585901b870184018b10156117f4578889fd5b8896505b8487101561181d5761180981611516565b8352600196909601959183019183016117f8565b5096505086013592505080821115611833578283fd5b506118408582860161152d565b9150509250929050565b60006020828403121561185b578081fd5b81356115c081611e49565b600060208284031215611877578081fd5b81516115c081611e49565b600060208284031215611893578081fd5b813567ffffffffffffffff8111156118a9578182fd5b8201601f810184136118b9578182fd5b61105f848235602084016114b8565b6000602082840312156118d9578081fd5b5035919050565b6000815180845260208085019450808401835b8381101561190f578151875295820195908201906001016118f3565b509495945050505050565b60008151808452611932816020860160208601611c97565b601f01601f19169290920160200192915050565b60008151611958818560208601611c97565b9290920192915050565b600080845482600182811c91508083168061197e57607f831692505b602080841082141561199e57634e487b7160e01b87526022600452602487fd5b8180156119b257600181146119c3576119ef565b60ff198616895284890196506119ef565b60008b815260209020885b868110156119e75781548b8201529085019083016119ce565b505084890196505b505050505050611a13611a028286611946565b64173539b7b760d91b815260050190565b95945050505050565b6001600160a01b0386811682528516602082015260a060408201819052600090611a48908301866118e0565b8281036060840152611a5a81866118e0565b90508281036080840152611a6e818561191a565b98975050505050505050565b6001600160a01b03868116825285166020820152604081018490526060810183905260a060808201819052600090611ab49083018461191a565b979650505050505050565b6000602082526115c060208301846118e0565b600060408252611ae560408301856118e0565b8281036020840152611a1381856118e0565b6000602082526115c0602083018461191a565b6020808252602f908201527f455243313135353a2063616c6c6572206973206e6f7420746f6b656e206f776e60408201526e195c881b9bdc88185c1c1c9bdd9959608a1b606082015260800190565b60208082526028908201527f455243313135353a204552433131353552656365697665722072656a656374656040820152676420746f6b656e7360c01b606082015260800190565b60208082526025908201527f455243313135353a207472616e7366657220746f20746865207a65726f206164604082015264647265737360d81b606082015260800190565b6020808252602a908201527f455243313135353a20696e73756666696369656e742062616c616e636520666f60408201526939103a3930b739b332b960b11b606082015260800190565b600067ffffffffffffffff821115611c4a57611c4a611d8a565b5060051b60200190565b60008219821115611c6757611c67611d5e565b500190565b600082611c7b57611c7b611d74565b500490565b600082821015611c9257611c92611d5e565b500390565b60005b83811015611cb2578181015183820152602001611c9a565b83811115611cc1576000848401525b50505050565b600181811c90821680611cdb57607f821691505b60208210811415611cfc57634e487b7160e01b600052602260045260246000fd5b50919050565b601f8201601f1916810167ffffffffffffffff81118282101715611d2857611d28611d8a565b6040525050565b6000600019821415611d4357611d43611d5e565b5060010190565b600082611d5957611d59611d74565b500690565b634e487b7160e01b600052601160045260246000fd5b634e487b7160e01b600052601260045260246000fd5b634e487b7160e01b600052604160045260246000fd5b600060033d11156108e557600481823e5160e01c90565b600060443d1015611dc7576108e5565b6040516003193d81016004833e81513d67ffffffffffffffff8160248401118184111715611df95750505050506108e5565b8285019150815181811115611e13575050505050506108e5565b843d8701016020828501011115611e2f575050505050506108e5565b611e3e60208286010187611d02565b509094505050505090565b6001600160e01b031981168114610aa257600080fdfea2646970667358221220f5a8243b8c07a854cd6a98aac71e37129898d57a3aea4fde0ed0d3f2dccc7f1a64736f6c63430008030033",
  "linkReferences": {},
  "deployedLinkReferences": {}
}