{
  "_format": "hh-sol-artifact-1",
  "contractName": "NFTMinter",
  "sourceName": "contracts/NFTMinter.sol",
  "abi": [
    {
      "inputs": [
        {
          "internalType": "address",
          "name": "_collection",
          "type": "address"
        },
        {
          "internalType": "uint256",
          "name": "_price",
          "type": "uint256"
        }
      ],
      "stateMutability": "nonpayable",
      "type": "constructor"
    },
    {
      "anonymous": false,
      "inputs": [
        {
          "indexed": false,
          "internalType": "address",
          "name": "to",
          "type": "address"
        },
        {
          "indexed": false,
          "internalType": "uint256",
          "name": "id",
          "type": "uint256"
        },
        {
          "indexed": false,
          "internalType": "uint256",
          "name": "price",
          "type": "uint256"
        }
      ],
      "name": "NFTMint",
      "type": "event"
    },
    {
      "anonymous": false,
      "inputs": [
        {
          "indexed": true,
          "internalType": "address",
          "name": "previousOwner",
          "type": "address"
        },
        {
          "indexed": true,
          "internalType": "address",
          "name": "newOwner",
          "type": "address"
        }
      ],
      "name": "OwnershipTransferred",
      "type": "event"
    },
    {
      "anonymous": false,
      "inputs": [
        {
          "indexed": false,
          "internalType": "uint256",
          "name": "price",
          "type": "uint256"
        }
      ],
      "name": "SetPrice",
      "type": "event"
    },
    {
      "anonymous": false,
      "inputs": [
        {
          "indexed": false,
          "internalType": "address",
          "name": "to",
          "type": "address"
        },
        {
          "indexed": false,
          "internalType": "uint256",
          "name": "amount",
          "type": "uint256"
        }
      ],
      "name": "Withdraw",
      "type": "event"
    },
    {
      "inputs": [],
      "name": "collection",
      "outputs": [
        {
          "internalType": "address",
          "name": "",
          "type": "address"
        }
      ],
      "stateMutability": "view",
      "type": "function"
    },
    {
      "inputs": [
        {
          "internalType": "address",
          "name": "to",
          "type": "address"
        },
        {
          "internalType": "uint256",
          "name": "id",
          "type": "uint256"
        }
      ],
      "name": "mint",
      "outputs": [],
      "stateMutability": "payable",
      "type": "function"
    },
    {
      "inputs": [],
      "name": "owner",
      "outputs": [
        {
          "internalType": "address",
          "name": "",
          "type": "address"
        }
      ],
      "stateMutability": "view",
      "type": "function"
    },
    {
      "inputs": [],
      "name": "price",
      "outputs": [
        {
          "internalType": "uint256",
          "name": "",
          "type": "uint256"
        }
      ],
      "stateMutability": "view",
      "type": "function"
    },
    {
      "inputs": [],
      "name": "renounceOwnership",
      "outputs": [],
      "stateMutability": "nonpayable",
      "type": "function"
    },
    {
      "inputs": [
        {
          "internalType": "string",
          "name": "baseTokenURI",
          "type": "string"
        }
      ],
      "name": "setBaseURI",
      "outputs": [],
      "stateMutability": "nonpayable",
      "type": "function"
    },
    {
      "inputs": [
        {
          "internalType": "uint256",
          "name": "maxSupply",
          "type": "uint256"
        }
      ],
      "name": "setMaxSupply",
      "outputs": [],
      "stateMutability": "nonpayable",
      "type": "function"
    },
    {
      "inputs": [
        {
          "internalType": "uint256",
          "name": "_price",
          "type": "uint256"
        }
      ],
      "name": "setPrice",
      "outputs": [],
      "stateMutability": "nonpayable",
      "type": "function"
    },
    {
      "inputs": [
        {
          "internalType": "uint256",
          "name": "revealAt",
          "type": "uint256"
        }
      ],
      "name": "setRevealAt",
      "outputs": [],
      "stateMutability": "nonpayable",
      "type": "function"
    },
    {
      "inputs": [
        {
          "internalType": "string",
          "name": "unrevealedTokenURI",
          "type": "string"
        }
      ],
      "name": "setUnRevealedTokenURI",
      "outputs": [],
      "stateMutability": "nonpayable",
      "type": "function"
    },
    {
      "inputs": [
        {
          "internalType": "address",
          "name": "newOwner",
          "type": "address"
        }
      ],
      "name": "transferOwnership",
      "outputs": [],
      "stateMutability": "nonpayable",
      "type": "function"
    },
    {
      "inputs": [
        {
          "internalType": "address",
          "name": "account",
          "type": "address"
        }
      ],
      "name": "withdraw",
      "outputs": [],
      "stateMutability": "nonpayable",
      "type": "function"
    },
    {
      "stateMutability": "payable",
      "type": "receive"
    }
  ],
  "bytecode": "0x608060405234801561001057600080fd5b50604051610abb380380610abb83398101604081905261002f916100b4565b61003833610064565b60018055600355600280546001600160a01b0319166001600160a01b03929092169190911790556100ec565b600080546001600160a01b038381166001600160a01b0319831681178455604051919092169283917f8be0079c531659141344cd1fd0a4f28419497f9722a3daafe3b4186f6b6457e09190a35050565b600080604083850312156100c6578182fd5b82516001600160a01b03811681146100dc578283fd5b6020939093015192949293505050565b6109c0806100fb6000396000f3fe6080604052600436106100ab5760003560e01c8063733088e611610064578063733088e6146101615780637de1e536146101815780638da5cb5b146101be57806391b7f5ed146101dc578063a035b1fe146101fc578063f2fde38b14610220576100b2565b80631dfbd149146100b757806340c10f19146100d957806351cff8d9146100ec57806355f804b31461010c5780636f8b44b01461012c578063715018a61461014c576100b2565b366100b257005b600080fd5b3480156100c357600080fd5b506100d76100d2366004610833565b610240565b005b6100d76100e736600461080a565b6102ad565b3480156100f857600080fd5b506100d76101073660046107e9565b61040f565b34801561011857600080fd5b506100d7610127366004610833565b61056c565b34801561013857600080fd5b506100d76101473660046108dd565b6105a4565b34801561015857600080fd5b506100d76105dd565b34801561016d57600080fd5b506100d761017c3660046108dd565b6105f1565b34801561018d57600080fd5b506002546101a1906001600160a01b031681565b6040516001600160a01b0390911681526020015b60405180910390f35b3480156101ca57600080fd5b506000546001600160a01b03166101a1565b3480156101e857600080fd5b506100d76101f73660046108dd565b61062a565b34801561020857600080fd5b5061021260035481565b6040519081526020016101b5565b34801561022c57600080fd5b506100d761023b3660046107e9565b6106aa565b610248610723565b600254604051631dfbd14960e01b81526001600160a01b0390911690631dfbd14990610278908490600401610911565b600060405180830381600087803b15801561029257600080fd5b505af11580156102a6573d6000803e3d6000fd5b5050505050565b600260015414156103055760405162461bcd60e51b815260206004820152601f60248201527f5265656e7472616e637947756172643a207265656e7472616e742063616c6c0060448201526064015b60405180910390fd5b60026001556003543410156103545760405162461bcd60e51b815260206004820152601560248201527424a729aaa32324a1a4a2a72a2faa2920a729a322a960591b60448201526064016102fc565b6002546040516340c10f1960e01b81526001600160a01b03848116600483015260248201849052909116906340c10f1990604401600060405180830381600087803b1580156103a257600080fd5b505af11580156103b6573d6000803e3d6000fd5b5050600354604080516001600160a01b03871681526020810186905280820192909252517f9a0eeff0a150e7562f828c8511b7760d9f6a47b1440050c497ff13c46eefb96e9350908190036060019150a1505060018055565b610417610723565b6001600160a01b03811661046d5760405162461bcd60e51b815260206004820181905260248201527f43414e204e4f5420574954484452415720544f205a45524f204144445245535360448201526064016102fc565b47806104bb5760405162461bcd60e51b815260206004820152601d60248201527f43414e204e4f54205749544844524157205a45524f2042414c414e434500000060448201526064016102fc565b604080516000815260208101918290526001600160a01b0384169183916104e1916108f5565b60006040518083038185875af1925050503d806000811461051e576040519150601f19603f3d011682016040523d82523d6000602084013e610523565b606091505b5050604080516001600160a01b0385168152602081018490527f884edad9ce6fa2440d8a54cc123490eb96d2768479d49ff9c7366125a942436492500160405180910390a15050565b610574610723565b6002546040516355f804b360e01b81526001600160a01b03909116906355f804b390610278908490600401610911565b6105ac610723565b6002546040516306f8b44b60e41b8152600481018390526001600160a01b0390911690636f8b44b090602401610278565b6105e5610723565b6105ef600061077d565b565b6105f9610723565b600254604051633998447360e11b8152600481018390526001600160a01b039091169063733088e690602401610278565b610632610723565b6000811161066f5760405162461bcd60e51b815260206004820152600a6024820152695a45524f5f505249434560b01b60448201526064016102fc565b60038190556040518181527f4f5539c0409dfc4cb06f64cbd31237e1fbfe443f531584bf4dd77ec7fc5ba7b19060200160405180910390a150565b6106b2610723565b6001600160a01b0381166107175760405162461bcd60e51b815260206004820152602660248201527f4f776e61626c653a206e6577206f776e657220697320746865207a65726f206160448201526564647265737360d01b60648201526084016102fc565b6107208161077d565b50565b6000546001600160a01b031633146105ef5760405162461bcd60e51b815260206004820181905260248201527f4f776e61626c653a2063616c6c6572206973206e6f7420746865206f776e657260448201526064016102fc565b600080546001600160a01b038381166001600160a01b0319831681178455604051919092169283917f8be0079c531659141344cd1fd0a4f28419497f9722a3daafe3b4186f6b6457e09190a35050565b80356001600160a01b03811681146107e457600080fd5b919050565b6000602082840312156107fa578081fd5b610803826107cd565b9392505050565b6000806040838503121561081c578081fd5b610825836107cd565b946020939093013593505050565b600060208284031215610844578081fd5b813567ffffffffffffffff8082111561085b578283fd5b818401915084601f83011261086e578283fd5b81358181111561088057610880610974565b604051601f8201601f19908116603f011681019083821181831017156108a8576108a8610974565b816040528281528760208487010111156108c0578586fd5b826020860160208301379182016020019490945295945050505050565b6000602082840312156108ee578081fd5b5035919050565b60008251610907818460208701610944565b9190910192915050565b6000602082528251806020840152610930816040850160208701610944565b601f01601f19169190910160400192915050565b60005b8381101561095f578181015183820152602001610947565b8381111561096e576000848401525b50505050565b634e487b7160e01b600052604160045260246000fdfea264697066735822122088cef562253dc7b9815f53d44a5376eb2dc5075872cb04936998fa8d4bd2dfa364736f6c63430008030033",
  "linkReferences": {},
  "deployedLinkReferences": {}
}